{"abi":[{"type":"constructor","inputs":[{"name":"_fdc","type":"address","internalType":"address"}],"stateMutability":"nonpayable"},{"type":"function","name":"extractReceiver","inputs":[{"name":"proof","type":"tuple","internalType":"struct IFDC.Proof","components":[{"name":"merkleProof","type":"bytes32[]","internalType":"bytes32[]"},{"name":"data","type":"tuple","internalType":"struct IFDC.Response","components":[{"name":"attestationType","type":"bytes32","internalType":"bytes32"},{"name":"sourceId","type":"bytes32","internalType":"bytes32"},{"name":"votingRound","type":"uint64","internalType":"uint64"},{"name":"lowestUsedTimestamp","type":"uint64","internalType":"uint64"},{"name":"requestBody","type":"tuple","internalType":"struct IFDC.RequestBody","components":[{"name":"transactionHash","type":"bytes32","internalType":"bytes32"},{"name":"requiredConfirmations","type":"uint16","internalType":"uint16"},{"name":"provideInput","type":"bool","internalType":"bool"},{"name":"listEvents","type":"bool","internalType":"bool"},{"name":"logIndices","type":"uint32[]","internalType":"uint32[]"}]},{"name":"responseBody","type":"tuple","internalType":"struct IFDC.ResponseBody","components":[{"name":"blockNumber","type":"uint64","internalType":"uint64"},{"name":"timestamp","type":"uint64","internalType":"uint64"},{"name":"sourceAddress","type":"address","internalType":"address"},{"name":"isDeployment","type":"bool","internalType":"bool"},{"name":"receivingAddress","type":"address","internalType":"address"},{"name":"value","type":"uint256","internalType":"uint256"},{"name":"input","type":"bytes","internalType":"bytes"},{"name":"status","type":"uint8","internalType":"uint8"},{"name":"events","type":"tuple[]","internalType":"struct IFDC.Event[]","components":[{"name":"logIndex","type":"uint32","internalType":"uint32"},{"name":"emitterAddress","type":"address","internalType":"address"},{"name":"topics","type":"bytes32[]","internalType":"bytes32[]"},{"name":"data","type":"bytes","internalType":"bytes"},{"name":"removed","type":"bool","internalType":"bool"}]}]}]}]}],"outputs":[{"name":"","type":"address","internalType":"address"}],"stateMutability":"pure"},{"type":"function","name":"extractSender","inputs":[{"name":"proof","type":"tuple","internalType":"struct IFDC.Proof","components":[{"name":"merkleProof","type":"bytes32[]","internalType":"bytes32[]"},{"name":"data","type":"tuple","internalType":"struct IFDC.Response","components":[{"name":"attestationType","type":"bytes32","internalType":"bytes32"},{"name":"sourceId","type":"bytes32","internalType":"bytes32"},{"name":"votingRound","type":"uint64","internalType":"uint64"},{"name":"lowestUsedTimestamp","type":"uint64","internalType":"uint64"},{"name":"requestBody","type":"tuple","internalType":"struct IFDC.RequestBody","components":[{"name":"transactionHash","type":"bytes32","internalType":"bytes32"},{"name":"requiredConfirmations","type":"uint16","internalType":"uint16"},{"name":"provideInput","type":"bool","internalType":"bool"},{"name":"listEvents","type":"bool","internalType":"bool"},{"name":"logIndices","type":"uint32[]","internalType":"uint32[]"}]},{"name":"responseBody","type":"tuple","internalType":"struct IFDC.ResponseBody","components":[{"name":"blockNumber","type":"uint64","internalType":"uint64"},{"name":"timestamp","type":"uint64","internalType":"uint64"},{"name":"sourceAddress","type":"address","internalType":"address"},{"name":"isDeployment","type":"bool","internalType":"bool"},{"name":"receivingAddress","type":"address","internalType":"address"},{"name":"value","type":"uint256","internalType":"uint256"},{"name":"input","type":"bytes","internalType":"bytes"},{"name":"status","type":"uint8","internalType":"uint8"},{"name":"events","type":"tuple[]","internalType":"struct IFDC.Event[]","components":[{"name":"logIndex","type":"uint32","internalType":"uint32"},{"name":"emitterAddress","type":"address","internalType":"address"},{"name":"topics","type":"bytes32[]","internalType":"bytes32[]"},{"name":"data","type":"bytes","internalType":"bytes"},{"name":"removed","type":"bool","internalType":"bool"}]}]}]}]}],"outputs":[{"name":"","type":"address","internalType":"address"}],"stateMutability":"pure"},{"type":"function","name":"extractValue","inputs":[{"name":"proof","type":"tuple","internalType":"struct IFDC.Proof","components":[{"name":"merkleProof","type":"bytes32[]","internalType":"bytes32[]"},{"name":"data","type":"tuple","internalType":"struct IFDC.Response","components":[{"name":"attestationType","type":"bytes32","internalType":"bytes32"},{"name":"sourceId","type":"bytes32","internalType":"bytes32"},{"name":"votingRound","type":"uint64","internalType":"uint64"},{"name":"lowestUsedTimestamp","type":"uint64","internalType":"uint64"},{"name":"requestBody","type":"tuple","internalType":"struct IFDC.RequestBody","components":[{"name":"transactionHash","type":"bytes32","internalType":"bytes32"},{"name":"requiredConfirmations","type":"uint16","internalType":"uint16"},{"name":"provideInput","type":"bool","internalType":"bool"},{"name":"listEvents","type":"bool","internalType":"bool"},{"name":"logIndices","type":"uint32[]","internalType":"uint32[]"}]},{"name":"responseBody","type":"tuple","internalType":"struct IFDC.ResponseBody","components":[{"name":"blockNumber","type":"uint64","internalType":"uint64"},{"name":"timestamp","type":"uint64","internalType":"uint64"},{"name":"sourceAddress","type":"address","internalType":"address"},{"name":"isDeployment","type":"bool","internalType":"bool"},{"name":"receivingAddress","type":"address","internalType":"address"},{"name":"value","type":"uint256","internalType":"uint256"},{"name":"input","type":"bytes","internalType":"bytes"},{"name":"status","type":"uint8","internalType":"uint8"},{"name":"events","type":"tuple[]","internalType":"struct IFDC.Event[]","components":[{"name":"logIndex","type":"uint32","internalType":"uint32"},{"name":"emitterAddress","type":"address","internalType":"address"},{"name":"topics","type":"bytes32[]","internalType":"bytes32[]"},{"name":"data","type":"bytes","internalType":"bytes"},{"name":"removed","type":"bool","internalType":"bool"}]}]}]}]}],"outputs":[{"name":"","type":"uint256","internalType":"uint256"}],"stateMutability":"view"},{"type":"function","name":"fdc","inputs":[],"outputs":[{"name":"","type":"address","internalType":"contract IFDC"}],"stateMutability":"view"},{"type":"function","name":"verifyEVMTransaction","inputs":[{"name":"proof","type":"tuple","internalType":"struct IFDC.Proof","components":[{"name":"merkleProof","type":"bytes32[]","internalType":"bytes32[]"},{"name":"data","type":"tuple","internalType":"struct IFDC.Response","components":[{"name":"attestationType","type":"bytes32","internalType":"bytes32"},{"name":"sourceId","type":"bytes32","internalType":"bytes32"},{"name":"votingRound","type":"uint64","internalType":"uint64"},{"name":"lowestUsedTimestamp","type":"uint64","internalType":"uint64"},{"name":"requestBody","type":"tuple","internalType":"struct IFDC.RequestBody","components":[{"name":"transactionHash","type":"bytes32","internalType":"bytes32"},{"name":"requiredConfirmations","type":"uint16","internalType":"uint16"},{"name":"provideInput","type":"bool","internalType":"bool"},{"name":"listEvents","type":"bool","internalType":"bool"},{"name":"logIndices","type":"uint32[]","internalType":"uint32[]"}]},{"name":"responseBody","type":"tuple","internalType":"struct IFDC.ResponseBody","components":[{"name":"blockNumber","type":"uint64","internalType":"uint64"},{"name":"timestamp","type":"uint64","internalType":"uint64"},{"name":"sourceAddress","type":"address","internalType":"address"},{"name":"isDeployment","type":"bool","internalType":"bool"},{"name":"receivingAddress","type":"address","internalType":"address"},{"name":"value","type":"uint256","internalType":"uint256"},{"name":"input","type":"bytes","internalType":"bytes"},{"name":"status","type":"uint8","internalType":"uint8"},{"name":"events","type":"tuple[]","internalType":"struct IFDC.Event[]","components":[{"name":"logIndex","type":"uint32","internalType":"uint32"},{"name":"emitterAddress","type":"address","internalType":"address"},{"name":"topics","type":"bytes32[]","internalType":"bytes32[]"},{"name":"data","type":"bytes","internalType":"bytes"},{"name":"removed","type":"bool","internalType":"bool"}]}]}]}]}],"outputs":[{"name":"proved","type":"bool","internalType":"bool"}],"stateMutability":"view"}],"bytecode":{"object":"0x608060405234801561000f575f5ffd5b506040516111a63803806111a683398181016040528101906100319190610142565b5f73ffffffffffffffffffffffffffffffffffffffff168173ffffffffffffffffffffffffffffffffffffffff160361009f576040517f08c379a0000000000000000000000000000000000000000000000000000000008152600401610096906101c7565b60405180910390fd5b805f5f6101000a81548173ffffffffffffffffffffffffffffffffffffffff021916908373ffffffffffffffffffffffffffffffffffffffff160217905550506101e5565b5f5ffd5b5f73ffffffffffffffffffffffffffffffffffffffff82169050919050565b5f610111826100e8565b9050919050565b61012181610107565b811461012b575f5ffd5b50565b5f8151905061013c81610118565b92915050565b5f60208284031215610157576101566100e4565b5b5f6101648482850161012e565b91505092915050565b5f82825260208201905092915050565b7f496e76616c6964204644432061646472657373000000000000000000000000005f82015250565b5f6101b160138361016d565b91506101bc8261017d565b602082019050919050565b5f6020820190508181035f8301526101de816101a5565b9050919050565b610fb4806101f25f395ff3fe608060405234801561000f575f5ffd5b5060043610610055575f3560e01c806302c58764146100595780633275f21c1461008957806358fbe9e1146100a757806399d8f110146100d7578063b4c421ee14610107575b5f5ffd5b610073600480360381019061006e91906102c2565b610137565b6040516100809190610348565b60405180910390f35b610091610170565b60405161009e91906103bc565b60405180910390f35b6100c160048036038101906100bc91906102c2565b610194565b6040516100ce91906103ef565b60405180910390f35b6100f160048036038101906100ec91906102c2565b610234565b6040516100fe9190610348565b60405180910390f35b610121600480360381019061011c91906102c2565b61026d565b60405161012e9190610420565b60405180910390f35b5f818060200190610148919061043d565b8060a001906101579190610464565b608001602081019061016991906104b6565b9050919050565b5f5f9054906101000a900473ffffffffffffffffffffffffffffffffffffffff1681565b5f5f5f9054906101000a900473ffffffffffffffffffffffffffffffffffffffff1673ffffffffffffffffffffffffffffffffffffffff166358fbe9e1836040518263ffffffff1660e01b81526004016101ee9190610f1f565b602060405180830381865afa158015610209573d5f5f3e3d5ffd5b505050506040513d601f19601f8201168201806040525081019061022d9190610f53565b9050919050565b5f818060200190610245919061043d565b8060a001906102549190610464565b604001602081019061026691906104b6565b9050919050565b5f81806020019061027e919061043d565b8060a0019061028d9190610464565b60a001359050919050565b5f5ffd5b5f5ffd5b5f5ffd5b5f604082840312156102b9576102b86102a0565b5b81905092915050565b5f602082840312156102d7576102d6610298565b5b5f82013567ffffffffffffffff8111156102f4576102f361029c565b5b610300848285016102a4565b91505092915050565b5f73ffffffffffffffffffffffffffffffffffffffff82169050919050565b5f61033282610309565b9050919050565b61034281610328565b82525050565b5f60208201905061035b5f830184610339565b92915050565b5f819050919050565b5f61038461037f61037a84610309565b610361565b610309565b9050919050565b5f6103958261036a565b9050919050565b5f6103a68261038b565b9050919050565b6103b68161039c565b82525050565b5f6020820190506103cf5f8301846103ad565b92915050565b5f8115159050919050565b6103e9816103d5565b82525050565b5f6020820190506104025f8301846103e0565b92915050565b5f819050919050565b61041a81610408565b82525050565b5f6020820190506104335f830184610411565b92915050565b5f5ffd5b5f8235600160c00383360303811261045857610457610439565b5b80830191505092915050565b5f82356001610120038336030381126104805761047f610439565b5b80830191505092915050565b61049581610328565b811461049f575f5ffd5b50565b5f813590506104b08161048c565b92915050565b5f602082840312156104cb576104ca610298565b5b5f6104d8848285016104a2565b91505092915050565b5f5ffd5b5f5ffd5b5f5ffd5b5f5f83356001602003843603038112610509576105086104e9565b5b83810192508235915060208301925067ffffffffffffffff821115610531576105306104e1565b5b602082023603831315610547576105466104e5565b5b509250929050565b5f82825260208201905092915050565b5f5ffd5b82818337505050565b5f610577838561054f565b93507f07ffffffffffffffffffffffffffffffffffffffffffffffffffffffffffffff8311156105aa576105a961055f565b5b6020830292506105bb838584610563565b82840190509392505050565b5f8235600160c0038336030381126105e2576105e16104e9565b5b82810191505092915050565b5f819050919050565b610600816105ee565b811461060a575f5ffd5b50565b5f8135905061061b816105f7565b92915050565b5f61062f602084018461060d565b905092915050565b610640816105ee565b82525050565b5f67ffffffffffffffff82169050919050565b61066281610646565b811461066c575f5ffd5b50565b5f8135905061067d81610659565b92915050565b5f610691602084018461066f565b905092915050565b6106a281610646565b82525050565b5f8235600160a0038336030381126106c3576106c26104e9565b5b82810191505092915050565b5f61ffff82169050919050565b6106e5816106cf565b81146106ef575f5ffd5b50565b5f81359050610700816106dc565b92915050565b5f61071460208401846106f2565b905092915050565b610725816106cf565b82525050565b610734816103d5565b811461073e575f5ffd5b50565b5f8135905061074f8161072b565b92915050565b5f6107636020840184610741565b905092915050565b610774816103d5565b82525050565b5f5f83356001602003843603038112610796576107956104e9565b5b83810192508235915060208301925067ffffffffffffffff8211156107be576107bd6104e1565b5b6020820236038313156107d4576107d36104e5565b5b509250929050565b5f82825260208201905092915050565b5f819050919050565b5f63ffffffff82169050919050565b61080d816107f5565b82525050565b5f61081e8383610804565b60208301905092915050565b610833816107f5565b811461083d575f5ffd5b50565b5f8135905061084e8161082a565b92915050565b5f6108626020840184610840565b905092915050565b5f602082019050919050565b5f61088183856107dc565b935061088c826107ec565b805f5b858110156108c4576108a18284610854565b6108ab8882610813565b97506108b68361086a565b92505060018101905061088f565b5085925050509392505050565b5f60a083016108e25f840184610621565b6108ee5f860182610637565b506108fc6020840184610706565b610909602086018261071c565b506109176040840184610755565b610924604086018261076b565b506109326060840184610755565b61093f606086018261076b565b5061094d608084018461077a565b8583036080870152610960838284610876565b925050508091505092915050565b5f823560016101200383360303811261098a576109896104e9565b5b82810191505092915050565b5f6109a460208401846104a2565b905092915050565b6109b581610328565b82525050565b6109c481610408565b81146109ce575f5ffd5b50565b5f813590506109df816109bb565b92915050565b5f6109f360208401846109d1565b905092915050565b610a0481610408565b82525050565b5f5f83356001602003843603038112610a2657610a256104e9565b5b83810192508235915060208301925067ffffffffffffffff821115610a4e57610a4d6104e1565b5b600182023603831315610a6457610a636104e5565b5b509250929050565b5f82825260208201905092915050565b828183375f83830152505050565b5f601f19601f8301169050919050565b5f610aa58385610a6c565b9350610ab2838584610a7c565b610abb83610a8a565b840190509392505050565b5f60ff82169050919050565b610adb81610ac6565b8114610ae5575f5ffd5b50565b5f81359050610af681610ad2565b92915050565b5f610b0a6020840184610ae8565b905092915050565b610b1b81610ac6565b82525050565b5f5f83356001602003843603038112610b3d57610b3c6104e9565b5b83810192508235915060208301925067ffffffffffffffff821115610b6557610b646104e1565b5b602082023603831315610b7b57610b7a6104e5565b5b509250929050565b5f82825260208201905092915050565b5f819050919050565b5f60a08301610bad5f840184610854565b610bb95f860182610804565b50610bc76020840184610996565b610bd460208601826109ac565b50610be260408401846104ed565b8583036040870152610bf583828461056c565b92505050610c066060840184610a0a565b8583036060870152610c19838284610a9a565b92505050610c2a6080840184610755565b610c37608086018261076b565b508091505092915050565b5f610c4d8383610b9c565b905092915050565b5f8235600160a003833603038112610c7057610c6f6104e9565b5b82810191505092915050565b5f602082019050919050565b5f610c938385610b83565b935083602084028501610ca584610b93565b805f5b87811015610ce8578484038952610cbf8284610c55565b610cc98582610c42565b9450610cd483610c7c565b925060208a01995050600181019050610ca8565b50829750879450505050509392505050565b5f6101208301610d0c5f840184610683565b610d185f860182610699565b50610d266020840184610683565b610d336020860182610699565b50610d416040840184610996565b610d4e60408601826109ac565b50610d5c6060840184610755565b610d69606086018261076b565b50610d776080840184610996565b610d8460808601826109ac565b50610d9260a08401846109e5565b610d9f60a08601826109fb565b50610dad60c0840184610a0a565b85830360c0870152610dc0838284610a9a565b92505050610dd160e0840184610afc565b610dde60e0860182610b12565b50610ded610100840184610b21565b858303610100870152610e01838284610c88565b925050508091505092915050565b5f60c08301610e205f840184610621565b610e2c5f860182610637565b50610e3a6020840184610621565b610e476020860182610637565b50610e556040840184610683565b610e626040860182610699565b50610e706060840184610683565b610e7d6060860182610699565b50610e8b60808401846106a8565b8482036080860152610e9d82826108d1565b915050610ead60a084018461096e565b84820360a0860152610ebf8282610cfa565b9150508091505092915050565b5f60408301610edd5f8401846104ed565b8583035f870152610eef83828461056c565b92505050610f0060208401846105c7565b8482036020860152610f128282610e0f565b9150508091505092915050565b5f6020820190508181035f830152610f378184610ecc565b905092915050565b5f81519050610f4d8161072b565b92915050565b5f60208284031215610f6857610f67610298565b5b5f610f7584828501610f3f565b9150509291505056fea26469706673582212209dedca7654b5aab077c743a54c561434c03fd7ae2956026d843de83cf9947b8064736f6c63430008210033","linkReferences":{}},"methodIdentifiers":{"extractReceiver((bytes32[],(bytes32,bytes32,uint64,uint64,(bytes32,uint16,bool,bool,uint32[]),(uint64,uint64,address,bool,address,uint256,bytes,uint8,(uint32,address,bytes32[],bytes,bool)[]))))":"02c58764","extractSender((bytes32[],(bytes32,bytes32,uint64,uint64,(bytes32,uint16,bool,bool,uint32[]),(uint64,uint64,address,bool,address,uint256,bytes,uint8,(uint32,address,bytes32[],bytes,bool)[]))))":"99d8f110","extractValue((bytes32[],(bytes32,bytes32,uint64,uint64,(bytes32,uint16,bool,bool,uint32[]),(uint64,uint64,address,bool,address,uint256,bytes,uint8,(uint32,address,bytes32[],bytes,bool)[]))))":"b4c421ee","fdc()":"3275f21c","verifyEVMTransaction((bytes32[],(bytes32,bytes32,uint64,uint64,(bytes32,uint16,bool,bool,uint32[]),(uint64,uint64,address,bool,address,uint256,bytes,uint8,(uint32,address,bytes32[],bytes,bool)[]))))":"58fbe9e1"},"id":26}