{"abi":[{"type":"constructor","inputs":[{"name":"_verifier","type":"address","internalType":"address"},{"name":"_priceOracle","type":"address","internalType":"address"}],"stateMutability":"nonpayable"},{"type":"function","name":"canLiquidate","inputs":[{"name":"collateralProof","type":"tuple","internalType":"struct IFDC.Proof","components":[{"name":"merkleProof","type":"bytes32[]","internalType":"bytes32[]"},{"name":"data","type":"tuple","internalType":"struct IFDC.Response","components":[{"name":"attestationType","type":"bytes32","internalType":"bytes32"},{"name":"sourceId","type":"bytes32","internalType":"bytes32"},{"name":"votingRound","type":"uint64","internalType":"uint64"},{"name":"lowestUsedTimestamp","type":"uint64","internalType":"uint64"},{"name":"requestBody","type":"tuple","internalType":"struct IFDC.RequestBody","components":[{"name":"transactionHash","type":"bytes32","internalType":"bytes32"},{"name":"requiredConfirmations","type":"uint16","internalType":"uint16"},{"name":"provideInput","type":"bool","internalType":"bool"},{"name":"listEvents","type":"bool","internalType":"bool"},{"name":"logIndices","type":"uint32[]","internalType":"uint32[]"}]},{"name":"responseBody","type":"tuple","internalType":"struct IFDC.ResponseBody","components":[{"name":"blockNumber","type":"uint64","internalType":"uint64"},{"name":"timestamp","type":"uint64","internalType":"uint64"},{"name":"sourceAddress","type":"address","internalType":"address"},{"name":"isDeployment","type":"bool","internalType":"bool"},{"name":"receivingAddress","type":"address","internalType":"address"},{"name":"value","type":"uint256","internalType":"uint256"},{"name":"input","type":"bytes","internalType":"bytes"},{"name":"status","type":"uint8","internalType":"uint8"},{"name":"events","type":"tuple[]","internalType":"struct IFDC.Event[]","components":[{"name":"logIndex","type":"uint32","internalType":"uint32"},{"name":"emitterAddress","type":"address","internalType":"address"},{"name":"topics","type":"bytes32[]","internalType":"bytes32[]"},{"name":"data","type":"bytes","internalType":"bytes"},{"name":"removed","type":"bool","internalType":"bool"}]}]}]}]},{"name":"debtProof","type":"tuple","internalType":"struct IFDC.Proof","components":[{"name":"merkleProof","type":"bytes32[]","internalType":"bytes32[]"},{"name":"data","type":"tuple","internalType":"struct IFDC.Response","components":[{"name":"attestationType","type":"bytes32","internalType":"bytes32"},{"name":"sourceId","type":"bytes32","internalType":"bytes32"},{"name":"votingRound","type":"uint64","internalType":"uint64"},{"name":"lowestUsedTimestamp","type":"uint64","internalType":"uint64"},{"name":"requestBody","type":"tuple","internalType":"struct IFDC.RequestBody","components":[{"name":"transactionHash","type":"bytes32","internalType":"bytes32"},{"name":"requiredConfirmations","type":"uint16","internalType":"uint16"},{"name":"provideInput","type":"bool","internalType":"bool"},{"name":"listEvents","type":"bool","internalType":"bool"},{"name":"logIndices","type":"uint32[]","internalType":"uint32[]"}]},{"name":"responseBody","type":"tuple","internalType":"struct IFDC.ResponseBody","components":[{"name":"blockNumber","type":"uint64","internalType":"uint64"},{"name":"timestamp","type":"uint64","internalType":"uint64"},{"name":"sourceAddress","type":"address","internalType":"address"},{"name":"isDeployment","type":"bool","internalType":"bool"},{"name":"receivingAddress","type":"address","internalType":"address"},{"name":"value","type":"uint256","internalType":"uint256"},{"name":"input","type":"bytes","internalType":"bytes"},{"name":"status","type":"uint8","internalType":"uint8"},{"name":"events","type":"tuple[]","internalType":"struct IFDC.Event[]","components":[{"name":"logIndex","type":"uint32","internalType":"uint32"},{"name":"emitterAddress","type":"address","internalType":"address"},{"name":"topics","type":"bytes32[]","internalType":"bytes32[]"},{"name":"data","type":"bytes","internalType":"bytes"},{"name":"removed","type":"bool","internalType":"bool"}]}]}]}]},{"name":"collateralAsset","type":"bytes32","internalType":"bytes32"},{"name":"debtAsset","type":"bytes32","internalType":"bytes32"}],"outputs":[{"name":"","type":"bool","internalType":"bool"}],"stateMutability":"nonpayable"},{"type":"function","name":"collateralFactors","inputs":[{"name":"","type":"bytes32","internalType":"bytes32"}],"outputs":[{"name":"","type":"uint256","internalType":"uint256"}],"stateMutability":"view"},{"type":"function","name":"computeHealthFactor","inputs":[{"name":"collateralProof","type":"tuple","internalType":"struct IFDC.Proof","components":[{"name":"merkleProof","type":"bytes32[]","internalType":"bytes32[]"},{"name":"data","type":"tuple","internalType":"struct IFDC.Response","components":[{"name":"attestationType","type":"bytes32","internalType":"bytes32"},{"name":"sourceId","type":"bytes32","internalType":"bytes32"},{"name":"votingRound","type":"uint64","internalType":"uint64"},{"name":"lowestUsedTimestamp","type":"uint64","internalType":"uint64"},{"name":"requestBody","type":"tuple","internalType":"struct IFDC.RequestBody","components":[{"name":"transactionHash","type":"bytes32","internalType":"bytes32"},{"name":"requiredConfirmations","type":"uint16","internalType":"uint16"},{"name":"provideInput","type":"bool","internalType":"bool"},{"name":"listEvents","type":"bool","internalType":"bool"},{"name":"logIndices","type":"uint32[]","internalType":"uint32[]"}]},{"name":"responseBody","type":"tuple","internalType":"struct IFDC.ResponseBody","components":[{"name":"blockNumber","type":"uint64","internalType":"uint64"},{"name":"timestamp","type":"uint64","internalType":"uint64"},{"name":"sourceAddress","type":"address","internalType":"address"},{"name":"isDeployment","type":"bool","internalType":"bool"},{"name":"receivingAddress","type":"address","internalType":"address"},{"name":"value","type":"uint256","internalType":"uint256"},{"name":"input","type":"bytes","internalType":"bytes"},{"name":"status","type":"uint8","internalType":"uint8"},{"name":"events","type":"tuple[]","internalType":"struct IFDC.Event[]","components":[{"name":"logIndex","type":"uint32","internalType":"uint32"},{"name":"emitterAddress","type":"address","internalType":"address"},{"name":"topics","type":"bytes32[]","internalType":"bytes32[]"},{"name":"data","type":"bytes","internalType":"bytes"},{"name":"removed","type":"bool","internalType":"bool"}]}]}]}]},{"name":"debtProof","type":"tuple","internalType":"struct IFDC.Proof","components":[{"name":"merkleProof","type":"bytes32[]","internalType":"bytes32[]"},{"name":"data","type":"tuple","internalType":"struct IFDC.Response","components":[{"name":"attestationType","type":"bytes32","internalType":"bytes32"},{"name":"sourceId","type":"bytes32","internalType":"bytes32"},{"name":"votingRound","type":"uint64","internalType":"uint64"},{"name":"lowestUsedTimestamp","type":"uint64","internalType":"uint64"},{"name":"requestBody","type":"tuple","internalType":"struct IFDC.RequestBody","components":[{"name":"transactionHash","type":"bytes32","internalType":"bytes32"},{"name":"requiredConfirmations","type":"uint16","internalType":"uint16"},{"name":"provideInput","type":"bool","internalType":"bool"},{"name":"listEvents","type":"bool","internalType":"bool"},{"name":"logIndices","type":"uint32[]","internalType":"uint32[]"}]},{"name":"responseBody","type":"tuple","internalType":"struct IFDC.ResponseBody","components":[{"name":"blockNumber","type":"uint64","internalType":"uint64"},{"name":"timestamp","type":"uint64","internalType":"uint64"},{"name":"sourceAddress","type":"address","internalType":"address"},{"name":"isDeployment","type":"bool","internalType":"bool"},{"name":"receivingAddress","type":"address","internalType":"address"},{"name":"value","type":"uint256","internalType":"uint256"},{"name":"input","type":"bytes","internalType":"bytes"},{"name":"status","type":"uint8","internalType":"uint8"},{"name":"events","type":"tuple[]","internalType":"struct IFDC.Event[]","components":[{"name":"logIndex","type":"uint32","internalType":"uint32"},{"name":"emitterAddress","type":"address","internalType":"address"},{"name":"topics","type":"bytes32[]","internalType":"bytes32[]"},{"name":"data","type":"bytes","internalType":"bytes"},{"name":"removed","type":"bool","internalType":"bool"}]}]}]}]},{"name":"collateralAsset","type":"bytes32","internalType":"bytes32"},{"name":"debtAsset","type":"bytes32","internalType":"bytes32"}],"outputs":[{"name":"healthFactor","type":"uint256","internalType":"uint256"}],"stateMutability":"nonpayable"},{"type":"function","name":"priceOracle","inputs":[],"outputs":[{"name":"","type":"address","internalType":"contract PriceOracle"}],"stateMutability":"view"},{"type":"function","name":"setCollateralFactor","inputs":[{"name":"assetKey","type":"bytes32","internalType":"bytes32"},{"name":"factor","type":"uint256","internalType":"uint256"}],"outputs":[],"stateMutability":"nonpayable"},{"type":"function","name":"verifier","inputs":[],"outputs":[{"name":"","type":"address","internalType":"contract CrossChainVerifier"}],"stateMutability":"view"}],"bytecode":{"object":"0x608060405234801561000f575f5ffd5b50604051611a0b380380611a0b833981810160405281019061003191906101f1565b5f73ffffffffffffffffffffffffffffffffffffffff168273ffffffffffffffffffffffffffffffffffffffff160361009f576040517f08c379a000000000000000000000000000000000000000000000000000000000815260040161009690610289565b60405180910390fd5b5f73ffffffffffffffffffffffffffffffffffffffff168173ffffffffffffffffffffffffffffffffffffffff160361010d576040517f08c379a0000000000000000000000000000000000000000000000000000000008152600401610104906102f1565b60405180910390fd5b815f5f6101000a81548173ffffffffffffffffffffffffffffffffffffffff021916908373ffffffffffffffffffffffffffffffffffffffff1602179055508060015f6101000a81548173ffffffffffffffffffffffffffffffffffffffff021916908373ffffffffffffffffffffffffffffffffffffffff160217905550505061030f565b5f5ffd5b5f73ffffffffffffffffffffffffffffffffffffffff82169050919050565b5f6101c082610197565b9050919050565b6101d0816101b6565b81146101da575f5ffd5b50565b5f815190506101eb816101c7565b92915050565b5f5f6040838503121561020757610206610193565b5b5f610214858286016101dd565b9250506020610225858286016101dd565b9150509250929050565b5f82825260208201905092915050565b7f496e76616c6964207665726966696572000000000000000000000000000000005f82015250565b5f61027360108361022f565b915061027e8261023f565b602082019050919050565b5f6020820190508181035f8301526102a081610267565b9050919050565b7f496e76616c6964206f7261636c650000000000000000000000000000000000005f82015250565b5f6102db600e8361022f565b91506102e6826102a7565b602082019050919050565b5f6020820190508181035f830152610308816102cf565b9050919050565b6116ef8061031c5f395ff3fe608060405234801561000f575f5ffd5b5060043610610060575f3560e01c80632630c12f146100645780632b7ac3f314610082578063424ab58b146100a05780635ce99a86146100d0578063a43ee21b14610100578063b4415a4414610130575b5f5ffd5b61006c61014c565b60405161007991906107af565b60405180910390f35b61008a610171565b60405161009791906107e8565b60405180910390f35b6100ba60048036038101906100b5919061085e565b610195565b6040516100c79190610914565b60405180910390f35b6100ea60048036038101906100e5919061085e565b61022e565b6040516100f79190610945565b60405180910390f35b61011a6004803603810190610115919061095e565b610706565b6040516101279190610945565b60405180910390f35b61014a600480360381019061014591906109b3565b61071b565b005b60015f9054906101000a900473ffffffffffffffffffffffffffffffffffffffff1681565b5f5f9054906101000a900473ffffffffffffffffffffffffffffffffffffffff1681565b5f5f3073ffffffffffffffffffffffffffffffffffffffff16635ce99a86878787876040518563ffffffff1660e01b81526004016101d6949392919061141c565b6020604051808303815f875af11580156101f2573d5f5f3e3d5ffd5b505050506040513d601f19601f820116820180604052508101906102169190611481565b9050670de0b6b3a76400008110915050949350505050565b5f5f5f5f9054906101000a900473ffffffffffffffffffffffffffffffffffffffff1673ffffffffffffffffffffffffffffffffffffffff166358fbe9e1876040518263ffffffff1660e01b815260040161028991906114ac565b602060405180830381865afa1580156102a4573d5f5f3e3d5ffd5b505050506040513d601f19601f820116820180604052508101906102c891906114e0565b90505f5f5f9054906101000a900473ffffffffffffffffffffffffffffffffffffffff1673ffffffffffffffffffffffffffffffffffffffff166358fbe9e1876040518263ffffffff1660e01b815260040161032491906114ac565b602060405180830381865afa15801561033f573d5f5f3e3d5ffd5b505050506040513d601f19601f8201168201806040525081019061036391906114e0565b905081801561036f5750805b6103ae576040517f08c379a00000000000000000000000000000000000000000000000000000000081526004016103a590611565565b60405180910390fd5b5f5f5f9054906101000a900473ffffffffffffffffffffffffffffffffffffffff1673ffffffffffffffffffffffffffffffffffffffff1663b4c421ee896040518263ffffffff1660e01b815260040161040891906114ac565b602060405180830381865afa158015610423573d5f5f3e3d5ffd5b505050506040513d601f19601f820116820180604052508101906104479190611481565b90505f5f5f9054906101000a900473ffffffffffffffffffffffffffffffffffffffff1673ffffffffffffffffffffffffffffffffffffffff1663b4c421ee896040518263ffffffff1660e01b81526004016104a391906114ac565b602060405180830381865afa1580156104be573d5f5f3e3d5ffd5b505050506040513d601f19601f820116820180604052508101906104e29190611481565b90505f60015f9054906101000a900473ffffffffffffffffffffffffffffffffffffffff1673ffffffffffffffffffffffffffffffffffffffff166331d98b3f896040518263ffffffff1660e01b815260040161053f9190611583565b60408051808303815f875af115801561055a573d5f5f3e3d5ffd5b505050506040513d601f19601f8201168201806040525081019061057e91906115b0565b5090505f60015f9054906101000a900473ffffffffffffffffffffffffffffffffffffffff1673ffffffffffffffffffffffffffffffffffffffff166331d98b3f896040518263ffffffff1660e01b81526004016105dc9190611583565b60408051808303815f875af11580156105f7573d5f5f3e3d5ffd5b505050506040513d601f19601f8201168201806040525081019061061b91906115b0565b5090505f670de0b6b3a76400008386610634919061161b565b61063e9190611689565b90505f670de0b6b3a76400008386610656919061161b565b6106609190611689565b90505f60025f8d81526020019081526020015f205490505f670de0b6b3a7640000828561068d919061161b565b6106979190611689565b90505f83036106d2577fffffffffffffffffffffffffffffffffffffffffffffffffffffffffffffffff9a50505050505050505050506106fe565b82670de0b6b3a7640000826106e7919061161b565b6106f19190611689565b9a50505050505050505050505b949350505050565b6002602052805f5260405f205f915090505481565b8060025f8481526020019081526020015f20819055505050565b5f73ffffffffffffffffffffffffffffffffffffffff82169050919050565b5f819050919050565b5f61077761077261076d84610735565b610754565b610735565b9050919050565b5f6107888261075d565b9050919050565b5f6107998261077e565b9050919050565b6107a98161078f565b82525050565b5f6020820190506107c25f8301846107a0565b92915050565b5f6107d28261077e565b9050919050565b6107e2816107c8565b82525050565b5f6020820190506107fb5f8301846107d9565b92915050565b5f5ffd5b5f5ffd5b5f5ffd5b5f6040828403121561082257610821610809565b5b81905092915050565b5f819050919050565b61083d8161082b565b8114610847575f5ffd5b50565b5f8135905061085881610834565b92915050565b5f5f5f5f6080858703121561087657610875610801565b5b5f85013567ffffffffffffffff81111561089357610892610805565b5b61089f8782880161080d565b945050602085013567ffffffffffffffff8111156108c0576108bf610805565b5b6108cc8782880161080d565b93505060406108dd8782880161084a565b92505060606108ee8782880161084a565b91505092959194509250565b5f8115159050919050565b61090e816108fa565b82525050565b5f6020820190506109275f830184610905565b92915050565b5f819050919050565b61093f8161092d565b82525050565b5f6020820190506109585f830184610936565b92915050565b5f6020828403121561097357610972610801565b5b5f6109808482850161084a565b91505092915050565b6109928161092d565b811461099c575f5ffd5b50565b5f813590506109ad81610989565b92915050565b5f5f604083850312156109c9576109c8610801565b5b5f6109d68582860161084a565b92505060206109e78582860161099f565b9150509250929050565b5f5ffd5b5f5ffd5b5f5ffd5b5f5f83356001602003843603038112610a1957610a186109f9565b5b83810192508235915060208301925067ffffffffffffffff821115610a4157610a406109f1565b5b602082023603831315610a5757610a566109f5565b5b509250929050565b5f82825260208201905092915050565b5f5ffd5b82818337505050565b5f610a878385610a5f565b93507f07ffffffffffffffffffffffffffffffffffffffffffffffffffffffffffffff831115610aba57610ab9610a6f565b5b602083029250610acb838584610a73565b82840190509392505050565b5f8235600160c003833603038112610af257610af16109f9565b5b82810191505092915050565b5f610b0c602084018461084a565b905092915050565b610b1d8161082b565b82525050565b5f67ffffffffffffffff82169050919050565b610b3f81610b23565b8114610b49575f5ffd5b50565b5f81359050610b5a81610b36565b92915050565b5f610b6e6020840184610b4c565b905092915050565b610b7f81610b23565b82525050565b5f8235600160a003833603038112610ba057610b9f6109f9565b5b82810191505092915050565b5f61ffff82169050919050565b610bc281610bac565b8114610bcc575f5ffd5b50565b5f81359050610bdd81610bb9565b92915050565b5f610bf16020840184610bcf565b905092915050565b610c0281610bac565b82525050565b610c11816108fa565b8114610c1b575f5ffd5b50565b5f81359050610c2c81610c08565b92915050565b5f610c406020840184610c1e565b905092915050565b610c51816108fa565b82525050565b5f5f83356001602003843603038112610c7357610c726109f9565b5b83810192508235915060208301925067ffffffffffffffff821115610c9b57610c9a6109f1565b5b602082023603831315610cb157610cb06109f5565b5b509250929050565b5f82825260208201905092915050565b5f819050919050565b5f63ffffffff82169050919050565b610cea81610cd2565b82525050565b5f610cfb8383610ce1565b60208301905092915050565b610d1081610cd2565b8114610d1a575f5ffd5b50565b5f81359050610d2b81610d07565b92915050565b5f610d3f6020840184610d1d565b905092915050565b5f602082019050919050565b5f610d5e8385610cb9565b9350610d6982610cc9565b805f5b85811015610da157610d7e8284610d31565b610d888882610cf0565b9750610d9383610d47565b925050600181019050610d6c565b5085925050509392505050565b5f60a08301610dbf5f840184610afe565b610dcb5f860182610b14565b50610dd96020840184610be3565b610de66020860182610bf9565b50610df46040840184610c32565b610e016040860182610c48565b50610e0f6060840184610c32565b610e1c6060860182610c48565b50610e2a6080840184610c57565b8583036080870152610e3d838284610d53565b925050508091505092915050565b5f8235600161012003833603038112610e6757610e666109f9565b5b82810191505092915050565b5f610e7d82610735565b9050919050565b610e8d81610e73565b8114610e97575f5ffd5b50565b5f81359050610ea881610e84565b92915050565b5f610ebc6020840184610e9a565b905092915050565b610ecd81610e73565b82525050565b5f610ee1602084018461099f565b905092915050565b610ef28161092d565b82525050565b5f5f83356001602003843603038112610f1457610f136109f9565b5b83810192508235915060208301925067ffffffffffffffff821115610f3c57610f3b6109f1565b5b600182023603831315610f5257610f516109f5565b5b509250929050565b5f82825260208201905092915050565b828183375f83830152505050565b5f601f19601f8301169050919050565b5f610f938385610f5a565b9350610fa0838584610f6a565b610fa983610f78565b840190509392505050565b5f60ff82169050919050565b610fc981610fb4565b8114610fd3575f5ffd5b50565b5f81359050610fe481610fc0565b92915050565b5f610ff86020840184610fd6565b905092915050565b61100981610fb4565b82525050565b5f5f8335600160200384360303811261102b5761102a6109f9565b5b83810192508235915060208301925067ffffffffffffffff821115611053576110526109f1565b5b602082023603831315611069576110686109f5565b5b509250929050565b5f82825260208201905092915050565b5f819050919050565b5f60a0830161109b5f840184610d31565b6110a75f860182610ce1565b506110b56020840184610eae565b6110c26020860182610ec4565b506110d060408401846109fd565b85830360408701526110e3838284610a7c565b925050506110f46060840184610ef8565b8583036060870152611107838284610f88565b925050506111186080840184610c32565b6111256080860182610c48565b508091505092915050565b5f61113b838361108a565b905092915050565b5f8235600160a00383360303811261115e5761115d6109f9565b5b82810191505092915050565b5f602082019050919050565b5f6111818385611071565b93508360208402850161119384611081565b805f5b878110156111d65784840389526111ad8284611143565b6111b78582611130565b94506111c28361116a565b925060208a01995050600181019050611196565b50829750879450505050509392505050565b5f61012083016111fa5f840184610b60565b6112065f860182610b76565b506112146020840184610b60565b6112216020860182610b76565b5061122f6040840184610eae565b61123c6040860182610ec4565b5061124a6060840184610c32565b6112576060860182610c48565b506112656080840184610eae565b6112726080860182610ec4565b5061128060a0840184610ed3565b61128d60a0860182610ee9565b5061129b60c0840184610ef8565b85830360c08701526112ae838284610f88565b925050506112bf60e0840184610fea565b6112cc60e0860182611000565b506112db61010084018461100f565b8583036101008701526112ef838284611176565b925050508091505092915050565b5f60c0830161130e5f840184610afe565b61131a5f860182610b14565b506113286020840184610afe565b6113356020860182610b14565b506113436040840184610b60565b6113506040860182610b76565b5061135e6060840184610b60565b61136b6060860182610b76565b506113796080840184610b85565b848203608086015261138b8282610dae565b91505061139b60a0840184610e4b565b84820360a08601526113ad82826111e8565b9150508091505092915050565b5f604083016113cb5f8401846109fd565b8583035f8701526113dd838284610a7c565b925050506113ee6020840184610ad7565b848203602086015261140082826112fd565b9150508091505092915050565b6114168161082b565b82525050565b5f6080820190508181035f83015261143481876113ba565b9050818103602083015261144881866113ba565b9050611457604083018561140d565b611464606083018461140d565b95945050505050565b5f8151905061147b81610989565b92915050565b5f6020828403121561149657611495610801565b5b5f6114a38482850161146d565b91505092915050565b5f6020820190508181035f8301526114c481846113ba565b905092915050565b5f815190506114da81610c08565b92915050565b5f602082840312156114f5576114f4610801565b5b5f611502848285016114cc565b91505092915050565b5f82825260208201905092915050565b7f496e76616c69642063726f73732d636861696e2070726f6f66730000000000005f82015250565b5f61154f601a8361150b565b915061155a8261151b565b602082019050919050565b5f6020820190508181035f83015261157c81611543565b9050919050565b5f6020820190506115965f83018461140d565b92915050565b5f815190506115aa81610b36565b92915050565b5f5f604083850312156115c6576115c5610801565b5b5f6115d38582860161146d565b92505060206115e48582860161159c565b9150509250929050565b7f4e487b71000000000000000000000000000000000000000000000000000000005f52601160045260245ffd5b5f6116258261092d565b91506116308361092d565b925082820261163e8161092d565b91508282048414831517611655576116546115ee565b5b5092915050565b7f4e487b71000000000000000000000000000000000000000000000000000000005f52601260045260245ffd5b5f6116938261092d565b915061169e8361092d565b9250826116ae576116ad61165c565b5b82820490509291505056fea26469706673582212202b034f99e5cbcae357a0a1367f800a1fbf3bebc5114e15f168275222ae973d1a64736f6c63430008210033","linkReferences":{}},"methodIdentifiers":{"canLiquidate((bytes32[],(bytes32,bytes32,uint64,uint64,(bytes32,uint16,bool,bool,uint32[]),(uint64,uint64,address,bool,address,uint256,bytes,uint8,(uint32,address,bytes32[],bytes,bool)[]))),(bytes32[],(bytes32,bytes32,uint64,uint64,(bytes32,uint16,bool,bool,uint32[]),(uint64,uint64,address,bool,address,uint256,bytes,uint8,(uint32,address,bytes32[],bytes,bool)[]))),bytes32,bytes32)":"424ab58b","collateralFactors(bytes32)":"a43ee21b","computeHealthFactor((bytes32[],(bytes32,bytes32,uint64,uint64,(bytes32,uint16,bool,bool,uint32[]),(uint64,uint64,address,bool,address,uint256,bytes,uint8,(uint32,address,bytes32[],bytes,bool)[]))),(bytes32[],(bytes32,bytes32,uint64,uint64,(bytes32,uint16,bool,bool,uint32[]),(uint64,uint64,address,bool,address,uint256,bytes,uint8,(uint32,address,bytes32[],bytes,bool)[]))),bytes32,bytes32)":"5ce99a86","priceOracle()":"2630c12f","setCollateralFactor(bytes32,uint256)":"b4415a44","verifier()":"2b7ac3f3"},"id":30}