{"abi":[{"type":"constructor","inputs":[{"name":"_positionManager","type":"address","internalType":"address"}],"stateMutability":"nonpayable"},{"type":"function","name":"getCollateral","inputs":[{"name":"user","type":"address","internalType":"address"}],"outputs":[{"name":"","type":"uint256","internalType":"uint256"}],"stateMutability":"view"},{"type":"function","name":"getDebt","inputs":[{"name":"user","type":"address","internalType":"address"}],"outputs":[{"name":"","type":"uint256","internalType":"uint256"}],"stateMutability":"view"},{"type":"function","name":"liquidate","inputs":[{"name":"user","type":"address","internalType":"address"}],"outputs":[],"stateMutability":"nonpayable"},{"type":"function","name":"positionManager","inputs":[],"outputs":[{"name":"","type":"address","internalType":"contract IPositionManager"}],"stateMutability":"view"}],"bytecode":{"object":"0x608060405234801561000f575f5ffd5b506040516105c23803806105c2833981810160405281019061003191906100d4565b805f5f6101000a81548173ffffffffffffffffffffffffffffffffffffffff021916908373ffffffffffffffffffffffffffffffffffffffff160217905550506100ff565b5f5ffd5b5f73ffffffffffffffffffffffffffffffffffffffff82169050919050565b5f6100a38261007a565b9050919050565b6100b381610099565b81146100bd575f5ffd5b50565b5f815190506100ce816100aa565b92915050565b5f602082840312156100e9576100e8610076565b5b5f6100f6848285016100c0565b91505092915050565b6104b68061010c5f395ff3fe608060405234801561000f575f5ffd5b506004361061004a575f3560e01c80632f8655681461004e578063791b98bc1461006a5780639a78e72e146100885780639b56d6c9146100b8575b5f5ffd5b61006860048036038101906100639190610333565b6100e8565b005b610072610171565b60405161007f91906103b9565b60405180910390f35b6100a2600480360381019061009d9190610333565b610195565b6040516100af91906103ea565b60405180910390f35b6100d260048036038101906100cd9190610333565b610235565b6040516100df91906103ea565b60405180910390f35b5f5f9054906101000a900473ffffffffffffffffffffffffffffffffffffffff1673ffffffffffffffffffffffffffffffffffffffff16632f865568826040518263ffffffff1660e01b81526004016101419190610412565b5f604051808303815f87803b158015610158575f5ffd5b505af115801561016a573d5f5f3e3d5ffd5b5050505050565b5f5f9054906101000a900473ffffffffffffffffffffffffffffffffffffffff1681565b5f5f5f9054906101000a900473ffffffffffffffffffffffffffffffffffffffff1673ffffffffffffffffffffffffffffffffffffffff16639a78e72e836040518263ffffffff1660e01b81526004016101ef9190610412565b602060405180830381865afa15801561020a573d5f5f3e3d5ffd5b505050506040513d601f19601f8201168201806040525081019061022e9190610455565b9050919050565b5f5f5f9054906101000a900473ffffffffffffffffffffffffffffffffffffffff1673ffffffffffffffffffffffffffffffffffffffff16639b56d6c9836040518263ffffffff1660e01b815260040161028f9190610412565b602060405180830381865afa1580156102aa573d5f5f3e3d5ffd5b505050506040513d601f19601f820116820180604052508101906102ce9190610455565b9050919050565b5f5ffd5b5f73ffffffffffffffffffffffffffffffffffffffff82169050919050565b5f610302826102d9565b9050919050565b610312816102f8565b811461031c575f5ffd5b50565b5f8135905061032d81610309565b92915050565b5f60208284031215610348576103476102d5565b5b5f6103558482850161031f565b91505092915050565b5f819050919050565b5f61038161037c610377846102d9565b61035e565b6102d9565b9050919050565b5f61039282610367565b9050919050565b5f6103a382610388565b9050919050565b6103b381610399565b82525050565b5f6020820190506103cc5f8301846103aa565b92915050565b5f819050919050565b6103e4816103d2565b82525050565b5f6020820190506103fd5f8301846103db565b92915050565b61040c816102f8565b82525050565b5f6020820190506104255f830184610403565b92915050565b610434816103d2565b811461043e575f5ffd5b50565b5f8151905061044f8161042b565b92915050565b5f6020828403121561046a576104696102d5565b5b5f61047784828501610441565b9150509291505056fea2646970667358221220f84b9fc7cca8997c488f4c19bd5b45331bde78e2f98a4f28c0d032a20f592b5164736f6c63430008210033","linkReferences":{}},"methodIdentifiers":{"getCollateral(address)":"9b56d6c9","getDebt(address)":"9a78e72e","liquidate(address)":"2f865568","positionManager()":"791b98bc"},"id":24}