{"abi":[{"type":"constructor","inputs":[{"name":"_ftso","type":"address","internalType":"address"}],"stateMutability":"nonpayable"},{"type":"function","name":"feedIds","inputs":[{"name":"","type":"bytes32","internalType":"bytes32"}],"outputs":[{"name":"","type":"bytes21","internalType":"bytes21"}],"stateMutability":"view"},{"type":"function","name":"ftso","inputs":[],"outputs":[{"name":"","type":"address","internalType":"contract IFTSO"}],"stateMutability":"view"},{"type":"function","name":"getPrice","inputs":[{"name":"assetKey","type":"bytes32","internalType":"bytes32"}],"outputs":[{"name":"price18","type":"uint256","internalType":"uint256"},{"name":"timestamp","type":"uint64","internalType":"uint64"}],"stateMutability":"nonpayable"},{"type":"function","name":"getRawPrice","inputs":[{"name":"feedId","type":"bytes21","internalType":"bytes21"}],"outputs":[{"name":"value","type":"uint256","internalType":"uint256"},{"name":"decimals","type":"int8","internalType":"int8"},{"name":"timestamp","type":"uint64","internalType":"uint64"}],"stateMutability":"nonpayable"},{"type":"function","name":"setFeedId","inputs":[{"name":"assetKey","type":"bytes32","internalType":"bytes32"},{"name":"feedId","type":"bytes21","internalType":"bytes21"}],"outputs":[],"stateMutability":"nonpayable"}],"bytecode":{"object":"0x608060405234801561000f575f5ffd5b50604051610c8d380380610c8d83398181016040528101906100319190610142565b5f73ffffffffffffffffffffffffffffffffffffffff168173ffffffffffffffffffffffffffffffffffffffff160361009f576040517f08c379a0000000000000000000000000000000000000000000000000000000008152600401610096906101c7565b60405180910390fd5b805f5f6101000a81548173ffffffffffffffffffffffffffffffffffffffff021916908373ffffffffffffffffffffffffffffffffffffffff160217905550506101e5565b5f5ffd5b5f73ffffffffffffffffffffffffffffffffffffffff82169050919050565b5f610111826100e8565b9050919050565b61012181610107565b811461012b575f5ffd5b50565b5f8151905061013c81610118565b92915050565b5f60208284031215610157576101566100e4565b5b5f6101648482850161012e565b91505092915050565b5f82825260208201905092915050565b7f496e76616c6964204654534f20616464726573730000000000000000000000005f82015250565b5f6101b160148361016d565b91506101bc8261017d565b602082019050919050565b5f6020820190508181035f8301526101de816101a5565b9050919050565b610a9b806101f25f395ff3fe608060405234801561000f575f5ffd5b5060043610610055575f3560e01c80630da0c022146100595780632145ca36146100775780632640f3ce146100a957806331d98b3f146100c5578063d1870b91146100f6575b5f5ffd5b610061610126565b60405161006e919061048a565b60405180910390f35b610091600480360381019061008c91906104fc565b61014a565b6040516100a09392919061057b565b60405180910390f35b6100c360048036038101906100be91906105e3565b6101f9565b005b6100df60048036038101906100da9190610621565b61023a565b6040516100ed92919061064c565b60405180910390f35b610110600480360381019061010b9190610621565b6103f3565b60405161011d9190610682565b60405180910390f35b5f5f9054906101000a900473ffffffffffffffffffffffffffffffffffffffff1681565b5f5f5f5f5f9054906101000a900473ffffffffffffffffffffffffffffffffffffffff1673ffffffffffffffffffffffffffffffffffffffff166393e9f806856040518263ffffffff1660e01b81526004016101a69190610682565b6060604051808303815f875af11580156101c2573d5f5f3e3d5ffd5b505050506040513d601f19601f820116820180604052508101906101e69190610719565b8093508194508295505050509193909250565b8060015f8481526020019081526020015f205f6101000a81548174ffffffffffffffffffffffffffffffffffffffffff021916908360581c02179055505050565b5f5f5f60015f8581526020019081526020015f205f9054906101000a900460581b90505f60581b6affffffffffffffffffffff1916816affffffffffffffffffffff1916036102be576040517f08c379a00000000000000000000000000000000000000000000000000000000081526004016102b5906107c3565b60405180910390fd5b5f5f5f5f5f9054906101000a900473ffffffffffffffffffffffffffffffffffffffff1673ffffffffffffffffffffffffffffffffffffffff166393e9f806856040518263ffffffff1660e01b815260040161031a9190610682565b6060604051808303815f875af1158015610336573d5f5f3e3d5ffd5b505050506040513d601f19601f8201168201806040525081019061035a9190610719565b9250925092506012825f0b0361037957828195509550505050506103ee565b6012825f0b13156103bb575f601283610392919061081a565b905080600a6103a1919061097d565b846103ac91906109f4565b829650965050505050506103ee565b5f8260126103c9919061081a565b905080600a6103d8919061097d565b846103e39190610a24565b829650965050505050505b915091565b6001602052805f5260405f205f915054906101000a900460581b81565b5f73ffffffffffffffffffffffffffffffffffffffff82169050919050565b5f819050919050565b5f61045261044d61044884610410565b61042f565b610410565b9050919050565b5f61046382610438565b9050919050565b5f61047482610459565b9050919050565b6104848161046a565b82525050565b5f60208201905061049d5f83018461047b565b92915050565b5f5ffd5b5f7fffffffffffffffffffffffffffffffffffffffffff000000000000000000000082169050919050565b6104db816104a7565b81146104e5575f5ffd5b50565b5f813590506104f6816104d2565b92915050565b5f60208284031215610511576105106104a3565b5b5f61051e848285016104e8565b91505092915050565b5f819050919050565b61053981610527565b82525050565b5f815f0b9050919050565b6105538161053f565b82525050565b5f67ffffffffffffffff82169050919050565b61057581610559565b82525050565b5f60608201905061058e5f830186610530565b61059b602083018561054a565b6105a8604083018461056c565b949350505050565b5f819050919050565b6105c2816105b0565b81146105cc575f5ffd5b50565b5f813590506105dd816105b9565b92915050565b5f5f604083850312156105f9576105f86104a3565b5b5f610606858286016105cf565b9250506020610617858286016104e8565b9150509250929050565b5f60208284031215610636576106356104a3565b5b5f610643848285016105cf565b91505092915050565b5f60408201905061065f5f830185610530565b61066c602083018461056c565b9392505050565b61067c816104a7565b82525050565b5f6020820190506106955f830184610673565b92915050565b6106a481610527565b81146106ae575f5ffd5b50565b5f815190506106bf8161069b565b92915050565b6106ce8161053f565b81146106d8575f5ffd5b50565b5f815190506106e9816106c5565b92915050565b6106f881610559565b8114610702575f5ffd5b50565b5f81519050610713816106ef565b92915050565b5f5f5f606084860312156107305761072f6104a3565b5b5f61073d868287016106b1565b935050602061074e868287016106db565b925050604061075f86828701610705565b9150509250925092565b5f82825260208201905092915050565b7f556e6b6e6f776e206173736574206665656400000000000000000000000000005f82015250565b5f6107ad601283610769565b91506107b882610779565b602082019050919050565b5f6020820190508181035f8301526107da816107a1565b9050919050565b5f60ff82169050919050565b7f4e487b71000000000000000000000000000000000000000000000000000000005f52601160045260245ffd5b5f610824826107e1565b915061082f836107e1565b9250828203905060ff811115610848576108476107ed565b5b92915050565b5f8160011c9050919050565b5f5f8291508390505b60018511156108a35780860481111561087f5761087e6107ed565b5b600185161561088e5780820291505b808102905061089c8561084e565b9450610863565b94509492505050565b5f826108bb5760019050610976565b816108c8575f9050610976565b81600181146108de57600281146108e857610917565b6001915050610976565b60ff8411156108fa576108f96107ed565b5b8360020a915084821115610911576109106107ed565b5b50610976565b5060208310610133831016604e8410600b841016171561094c5782820a905083811115610947576109466107ed565b5b610976565b610959848484600161085a565b925090508184048111156109705761096f6107ed565b5b81810290505b9392505050565b5f61098782610527565b9150610992836107e1565b92506109bf7fffffffffffffffffffffffffffffffffffffffffffffffffffffffffffffffff84846108ac565b905092915050565b7f4e487b71000000000000000000000000000000000000000000000000000000005f52601260045260245ffd5b5f6109fe82610527565b9150610a0983610527565b925082610a1957610a186109c7565b5b828204905092915050565b5f610a2e82610527565b9150610a3983610527565b9250828202610a4781610527565b91508282048414831517610a5e57610a5d6107ed565b5b509291505056fea264697066735822122026c57373dd6588a3c1ae42cecd7690b7cd6b9198086a29760eda141630d9a8bd64736f6c63430008210033","linkReferences":{}},"methodIdentifiers":{"feedIds(bytes32)":"d1870b91","ftso()":"0da0c022","getPrice(bytes32)":"31d98b3f","getRawPrice(bytes21)":"2145ca36","setFeedId(bytes32,bytes21)":"2640f3ce"},"id":29}